{
  "contractName": "Sale",
  "abi": [
    {
      "inputs": [
        {
          "internalType": "address",
          "name": "_admin",
          "type": "address"
        },
        {
          "internalType": "address",
          "name": "_seller",
          "type": "address"
        },
        {
          "internalType": "uint256",
          "name": "_tokenId",
          "type": "uint256"
        },
        {
          "internalType": "address",
          "name": "_currencyAddress",
          "type": "address"
        },
        {
          "internalType": "uint256",
          "name": "_purchasePrice",
          "type": "uint256"
        },
        {
          "internalType": "uint256",
          "name": "startTime",
          "type": "uint256"
        },
        {
          "internalType": "uint256",
          "name": "endTime",
          "type": "uint256"
        },
        {
          "internalType": "address",
          "name": "_nftAddress",
          "type": "address"
        }
      ],
      "stateMutability": "nonpayable",
      "type": "constructor"
    },
    {
      "anonymous": false,
      "inputs": [
        {
          "indexed": false,
          "internalType": "address",
          "name": "bidder",
          "type": "address"
        },
        {
          "indexed": false,
          "internalType": "uint256",
          "name": "amount",
          "type": "uint256"
        }
      ],
      "name": "HighestBidIncereased",
      "type": "event"
    },
    {
      "anonymous": false,
      "inputs": [
        {
          "indexed": false,
          "internalType": "address",
          "name": "winner",
          "type": "address"
        },
        {
          "indexed": false,
          "internalType": "uint256",
          "name": "amount",
          "type": "uint256"
        }
      ],
      "name": "SaleEnded",
      "type": "event"
    },
    {
      "inputs": [],
      "name": "buyer",
      "outputs": [
        {
          "internalType": "address",
          "name": "",
          "type": "address"
        }
      ],
      "stateMutability": "view",
      "type": "function"
    },
    {
      "inputs": [],
      "name": "currencyAddress",
      "outputs": [
        {
          "internalType": "address",
          "name": "",
          "type": "address"
        }
      ],
      "stateMutability": "view",
      "type": "function"
    },
    {
      "inputs": [],
      "name": "ended",
      "outputs": [
        {
          "internalType": "bool",
          "name": "",
          "type": "bool"
        }
      ],
      "stateMutability": "view",
      "type": "function"
    },
    {
      "inputs": [],
      "name": "erc20Contract",
      "outputs": [
        {
          "internalType": "contract IERC20",
          "name": "",
          "type": "address"
        }
      ],
      "stateMutability": "view",
      "type": "function"
    },
    {
      "inputs": [],
      "name": "erc721Constract",
      "outputs": [
        {
          "internalType": "contract IERC721",
          "name": "",
          "type": "address"
        }
      ],
      "stateMutability": "view",
      "type": "function"
    },
    {
      "inputs": [],
      "name": "nftAddress",
      "outputs": [
        {
          "internalType": "address",
          "name": "",
          "type": "address"
        }
      ],
      "stateMutability": "view",
      "type": "function"
    },
    {
      "inputs": [],
      "name": "purchasePrice",
      "outputs": [
        {
          "internalType": "uint256",
          "name": "",
          "type": "uint256"
        }
      ],
      "stateMutability": "view",
      "type": "function"
    },
    {
      "inputs": [],
      "name": "saleEndTime",
      "outputs": [
        {
          "internalType": "uint256",
          "name": "",
          "type": "uint256"
        }
      ],
      "stateMutability": "view",
      "type": "function"
    },
    {
      "inputs": [],
      "name": "saleStartTime",
      "outputs": [
        {
          "internalType": "uint256",
          "name": "",
          "type": "uint256"
        }
      ],
      "stateMutability": "view",
      "type": "function"
    },
    {
      "inputs": [],
      "name": "seller",
      "outputs": [
        {
          "internalType": "address",
          "name": "",
          "type": "address"
        }
      ],
      "stateMutability": "view",
      "type": "function"
    },
    {
      "inputs": [],
      "name": "tokenId",
      "outputs": [
        {
          "internalType": "uint256",
          "name": "",
          "type": "uint256"
        }
      ],
      "stateMutability": "view",
      "type": "function"
    },
    {
      "inputs": [],
      "name": "workId",
      "outputs": [
        {
          "internalType": "uint256",
          "name": "",
          "type": "uint256"
        }
      ],
      "stateMutability": "view",
      "type": "function"
    },
    {
      "inputs": [],
      "name": "purchase",
      "outputs": [],
      "stateMutability": "nonpayable",
      "type": "function"
    },
    {
      "inputs": [],
      "name": "cancelSales",
      "outputs": [],
      "stateMutability": "nonpayable",
      "type": "function"
    },
    {
      "inputs": [],
      "name": "getTimeLeft",
      "outputs": [
        {
          "internalType": "int256",
          "name": "",
          "type": "int256"
        }
      ],
      "stateMutability": "view",
      "type": "function"
    },
    {
      "inputs": [],
      "name": "getSaleInfo",
      "outputs": [
        {
          "internalType": "uint256",
          "name": "",
          "type": "uint256"
        },
        {
          "internalType": "uint256",
          "name": "",
          "type": "uint256"
        },
        {
          "internalType": "uint256",
          "name": "",
          "type": "uint256"
        },
        {
          "internalType": "uint256",
          "name": "",
          "type": "uint256"
        },
        {
          "internalType": "address",
          "name": "",
          "type": "address"
        },
        {
          "internalType": "address",
          "name": "",
          "type": "address"
        }
      ],
      "stateMutability": "view",
      "type": "function"
    }
  ],
  "bytecode": "0x60806040523480156200001157600080fd5b5060405162001417380380620014178339818101604052810190620000379190620002a7565b87600360006101000a81548173ffffffffffffffffffffffffffffffffffffffff021916908373ffffffffffffffffffffffffffffffffffffffff16021790555086600160006101000a81548173ffffffffffffffffffffffffffffffffffffffff021916908373ffffffffffffffffffffffffffffffffffffffff1602179055508560078190555084600860006101000a81548173ffffffffffffffffffffffffffffffffffffffff021916908373ffffffffffffffffffffffffffffffffffffffff16021790555083600681905550826004819055508160058190555080600960006101000a81548173ffffffffffffffffffffffffffffffffffffffff021916908373ffffffffffffffffffffffffffffffffffffffff1602179055506000600960146101000a81548160ff02191690831515021790555084600b60006101000a81548173ffffffffffffffffffffffffffffffffffffffff021916908373ffffffffffffffffffffffffffffffffffffffff16021790555080600c60006101000a81548173ffffffffffffffffffffffffffffffffffffffff021916908373ffffffffffffffffffffffffffffffffffffffff160217905550505050505050505062000370565b600080fd5b600073ffffffffffffffffffffffffffffffffffffffff82169050919050565b6000620002348262000207565b9050919050565b620002468162000227565b81146200025257600080fd5b50565b60008151905062000266816200023b565b92915050565b6000819050919050565b62000281816200026c565b81146200028d57600080fd5b50565b600081519050620002a18162000276565b92915050565b600080600080600080600080610100898b031215620002cb57620002ca62000202565b5b6000620002db8b828c0162000255565b9850506020620002ee8b828c0162000255565b9750506040620003018b828c0162000290565b9650506060620003148b828c0162000255565b9550506080620003278b828c0162000290565b94505060a06200033a8b828c0162000290565b93505060c06200034d8b828c0162000290565b92505060e0620003608b828c0162000255565b9150509295985092959890939650565b61109780620003806000396000f3fe608060405234801561001057600080fd5b50600436106101005760003560e01c8063903e329c11610097578063db83694c11610066578063db83694c14610245578063defd6c5f14610268578063ed338ff114610286578063ef0a230e146102a457610100565b8063903e329c146101e1578063a64258c8146101eb578063a8f6c91314610209578063c7e284b81461022757610100565b80631cbaee2d116100d35780631cbaee2d1461017d5780635bf8633a1461019b57806364edfbf0146101b95780637150d8ae146101c357610100565b806308551a531461010557806312fa6feb1461012357806317d70f7c146101415780631c1cb3231461015f575b600080fd5b61010d6102c2565b60405161011a9190610a32565b60405180910390f35b61012b6102e8565b6040516101389190610a68565b60405180910390f35b6101496102fb565b6040516101569190610a9c565b60405180910390f35b610167610301565b6040516101749190610a32565b60405180910390f35b610185610327565b6040516101929190610a9c565b60405180910390f35b6101a361032d565b6040516101b09190610a32565b60405180910390f35b6101c1610353565b005b6101cb610657565b6040516101d89190610a32565b60405180910390f35b6101e961067d565b005b6101f361084f565b6040516102009190610a9c565b60405180910390f35b610211610855565b60405161021e9190610b16565b60405180910390f35b61022f61087b565b60405161023c9190610b4a565b60405180910390f35b61024d610890565b60405161025f96959493929190610b65565b60405180910390f35b6102706108ff565b60405161027d9190610a9c565b60405180910390f35b61028e610905565b60405161029b9190610a9c565b60405180910390f35b6102ac61090b565b6040516102b99190610be7565b60405180910390f35b600160009054906101000a900473ffffffffffffffffffffffffffffffffffffffff1681565b600960149054906101000a900460ff1681565b60075481565b600860009054906101000a900473ffffffffffffffffffffffffffffffffffffffff1681565b60045481565b600960009054906101000a900473ffffffffffffffffffffffffffffffffffffffff1681565b600454421015610398576040517f08c379a000000000000000000000000000000000000000000000000000000000815260040161038f90610c5f565b60405180910390fd5b600160009054906101000a900473ffffffffffffffffffffffffffffffffffffffff1673ffffffffffffffffffffffffffffffffffffffff163373ffffffffffffffffffffffffffffffffffffffff161415610429576040517f08c379a000000000000000000000000000000000000000000000000000000000815260040161042090610cf1565b60405180910390fd5b6000426005546104399190610d40565b101561047a576040517f08c379a000000000000000000000000000000000000000000000000000000000815260040161047190610dc0565b60405180910390fd5b6000610484610931565b905080600654111561049557600080fd5b600b60009054906101000a900473ffffffffffffffffffffffffffffffffffffffff1673ffffffffffffffffffffffffffffffffffffffff166323b872dd33600160009054906101000a900473ffffffffffffffffffffffffffffffffffffffff166006546040518463ffffffff1660e01b815260040161051893929190610de0565b6020604051808303816000875af1158015610537573d6000803e3d6000fd5b505050506040513d601f19601f8201168201806040525081019061055b9190610e48565b50600c60009054906101000a900473ffffffffffffffffffffffffffffffffffffffff1673ffffffffffffffffffffffffffffffffffffffff166342842e0e600160009054906101000a900473ffffffffffffffffffffffffffffffffffffffff16336007546040518463ffffffff1660e01b81526004016105df93929190610de0565b600060405180830381600087803b1580156105f957600080fd5b505af115801561060d573d6000803e3d6000fd5b505050506106196109d4565b7f349f939aaa1895cee67485b264474f0d2a1aac01083917b8ea9f96e4036cbb273360065460405161064c929190610e75565b60405180910390a150565b600260009054906101000a900473ffffffffffffffffffffffffffffffffffffffff1681565b600160009054906101000a900473ffffffffffffffffffffffffffffffffffffffff1673ffffffffffffffffffffffffffffffffffffffff163373ffffffffffffffffffffffffffffffffffffffff161461070d576040517f08c379a000000000000000000000000000000000000000000000000000000000815260040161070490610eea565b60405180910390fd5b60004260055461071d9190610d40565b1161075d576040517f08c379a000000000000000000000000000000000000000000000000000000000815260040161075490610f56565b60405180910390fd5b600160009054906101000a900473ffffffffffffffffffffffffffffffffffffffff1673ffffffffffffffffffffffffffffffffffffffff163373ffffffffffffffffffffffffffffffffffffffff1614806108065750600360009054906101000a900473ffffffffffffffffffffffffffffffffffffffff1673ffffffffffffffffffffffffffffffffffffffff163373ffffffffffffffffffffffffffffffffffffffff16145b610845576040517f08c379a000000000000000000000000000000000000000000000000000000000815260040161083c90610fe8565b60405180910390fd5b61084d6109d4565b565b600a5481565b600b60009054906101000a900473ffffffffffffffffffffffffffffffffffffffff1681565b60004260055461088b9190610d40565b905090565b600080600080600080600454600554600654600754600860009054906101000a900473ffffffffffffffffffffffffffffffffffffffff16600960009054906101000a900473ffffffffffffffffffffffffffffffffffffffff16955095509550955095509550909192939495565b60065481565b60055481565b600c60009054906101000a900473ffffffffffffffffffffffffffffffffffffffff1681565b6000600b60009054906101000a900473ffffffffffffffffffffffffffffffffffffffff1673ffffffffffffffffffffffffffffffffffffffff166370a08231336040518263ffffffff1660e01b815260040161098e9190610a32565b602060405180830381865afa1580156109ab573d6000803e3d6000fd5b505050506040513d601f19601f820116820180604052508101906109cf9190611034565b905090565b6001600960146101000a81548160ff021916908315150217905550565b600073ffffffffffffffffffffffffffffffffffffffff82169050919050565b6000610a1c826109f1565b9050919050565b610a2c81610a11565b82525050565b6000602082019050610a476000830184610a23565b92915050565b60008115159050919050565b610a6281610a4d565b82525050565b6000602082019050610a7d6000830184610a59565b92915050565b6000819050919050565b610a9681610a83565b82525050565b6000602082019050610ab16000830184610a8d565b92915050565b6000819050919050565b6000610adc610ad7610ad2846109f1565b610ab7565b6109f1565b9050919050565b6000610aee82610ac1565b9050919050565b6000610b0082610ae3565b9050919050565b610b1081610af5565b82525050565b6000602082019050610b2b6000830184610b07565b92915050565b6000819050919050565b610b4481610b31565b82525050565b6000602082019050610b5f6000830184610b3b565b92915050565b600060c082019050610b7a6000830189610a8d565b610b876020830188610a8d565b610b946040830187610a8d565b610ba16060830186610a8d565b610bae6080830185610a23565b610bbb60a0830184610a23565b979650505050505050565b6000610bd182610ae3565b9050919050565b610be181610bc6565b82525050565b6000602082019050610bfc6000830184610bd8565b92915050565b600082825260208201905092915050565b7f53616c653a20546869732073616c65206973206e6f7420737461727465642e00600082015250565b6000610c49601f83610c02565b9150610c5482610c13565b602082019050919050565b60006020820190508181036000830152610c7881610c3c565b9050919050565b7f53616c653a20596f7520636f756c646e2774207075726368617365207468697360008201527f206974656d206265636175736520796f752061726520612073656c6c65722e00602082015250565b6000610cdb603f83610c02565b9150610ce682610c7f565b604082019050919050565b60006020820190508181036000830152610d0a81610cce565b9050919050565b7f4e487b7100000000000000000000000000000000000000000000000000000000600052601160045260246000fd5b6000610d4b82610a83565b9150610d5683610a83565b925082821015610d6957610d68610d11565b5b828203905092915050565b7f7365636f6e6465206572726f7200000000000000000000000000000000000000600082015250565b6000610daa600d83610c02565b9150610db582610d74565b602082019050919050565b60006020820190508181036000830152610dd981610d9d565b9050919050565b6000606082019050610df56000830186610a23565b610e026020830185610a23565b610e0f6040830184610a8d565b949350505050565b600080fd5b610e2581610a4d565b8114610e3057600080fd5b50565b600081519050610e4281610e1c565b92915050565b600060208284031215610e5e57610e5d610e17565b5b6000610e6c84828501610e33565b91505092915050565b6000604082019050610e8a6000830185610a23565b610e976020830184610a8d565b9392505050565b7f53616c653a20596f7520617265206e6f742073656c6c65722e00000000000000600082015250565b6000610ed4601983610c02565b9150610edf82610e9e565b602082019050919050565b60006020820190508181036000830152610f0381610ec7565b9050919050565b7f53616c653a2053616c6520697320616c726561647920656e6465642e00000000600082015250565b6000610f40601c83610c02565b9150610f4b82610f0a565b602082019050919050565b60006020820190508181036000830152610f6f81610f33565b9050919050565b7f53616c653a20596f7520617265206e6f742073656c6c6572206f722061646d6960008201527f6e6973747261746f722e00000000000000000000000000000000000000000000602082015250565b6000610fd2602a83610c02565b9150610fdd82610f76565b604082019050919050565b6000602082019050818103600083015261100181610fc5565b9050919050565b61101181610a83565b811461101c57600080fd5b50565b60008151905061102e81611008565b92915050565b60006020828403121561104a57611049610e17565b5b60006110588482850161101f565b9150509291505056fea264697066735822122049510a12ecddc47c0f6d57f538c9e964db9223fa77eeb1d8db0c7b694555302864736f6c634300080a0033",
  "immutableReferences": {},
  "source": "// SPDX-License-Identifier: MIT\r\npragma solidity ^0.8.4;\r\n\r\nimport \"./access/Ownable.sol\";\r\nimport \"./token/ERC20/ERC20.sol\";\r\nimport \"./token/ERC721/ERC721.sol\";\r\nimport \"@openzeppelin/contracts/utils/Counters.sol\";\r\n\r\n// import \"./utils/Counters.sol\";\r\n\r\n/**\r\n * PJT  - Req.1-SC1 SaleFactory \r\n *    ,      .\r\n */\r\n//  Ownable   ownable constructor \r\ncontract SaleFactory is Ownable {\r\n    using Counters for Counters.Counter;\r\n    Counters.Counter private _workId;\r\n\r\n    address public admin;\r\n    address[] public sales;\r\n\r\n    // Newsale    \r\n    // event  indexed,  web3.js filter      .\r\n    event NewSale(\r\n        address indexed _saleContract,\r\n        address indexed _owner,\r\n        uint256 _workId\r\n    );\r\n\r\n    constructor() {\r\n        admin = msg.sender;\r\n    }\r\n\r\n    /**\r\n     * @dev   .\r\n     */\r\n    function createSale(\r\n        uint256 itemId,\r\n        // uint256 minPrice,\r\n        uint256 purchasePrice,\r\n        uint256 startTime,\r\n        uint256 endTime,\r\n        address currencyAddress,\r\n        address nftAddress\r\n    ) public returns (address) {\r\n        // TODO\r\n        //       \r\n        // 4-1).\r\n        Sale sale = new Sale(\r\n            //   Sale  constructor   \r\n            //    \r\n            admin,\r\n            msg.sender,\r\n            itemId,\r\n            // minPrice,\r\n            //\r\n            currencyAddress,\r\n            purchasePrice,\r\n            startTime,\r\n            endTime,\r\n            //\r\n            nftAddress\r\n            // _workId.current(),\r\n            // address(this)\r\n        );\r\n        // setApprovalForAll(address(this), true);\r\n        // ERC721.setApprovalForAll(address(sale), true);\r\n        // erc721Constract.setApprovalForAll(msg.sender, address(sale), true);\r\n\r\n        // 4-2).     sales .\r\n        // sales[_workId.current()] = address(this);\r\n        sales.push(address(sale));\r\n        // 4-3).  sale   .\r\n        //     \r\n        emit NewSale(address(sale), msg.sender, _workId.current());\r\n        _workId.increment();\r\n\r\n        return address(sale);\r\n    }\r\n\r\n    function allSales() public view returns (address[] memory) {\r\n        return sales;\r\n    }\r\n}\r\n\r\n/**\r\n *  PJT  - Req.1-SC2) Sale \r\n */\r\ncontract Sale {\r\n    SaleFactory salefactory;\r\n    //    \r\n    // \r\n    address public seller;\r\n    // \r\n    address public buyer;\r\n    // \r\n    address admin;\r\n    uint256 public saleStartTime;\r\n    uint256 public saleEndTime;\r\n    // uint256 public minPrice;\r\n    // 6 \r\n    uint256 public purchasePrice;\r\n    //  nft ())\r\n    uint256 public tokenId;\r\n    //   erc-20 \r\n    address public currencyAddress;\r\n    //  nft (nft)\r\n    address public nftAddress;\r\n    bool public ended;\r\n    uint256 public workId;\r\n\r\n    //    \r\n    // address public highestBidder;\r\n    // uint256 public highestBid;\r\n\r\n    IERC20 public erc20Contract;\r\n    IERC721 public erc721Constract;\r\n\r\n    event HighestBidIncereased(address bidder, uint256 amount);\r\n    event SaleEnded(address winner, uint256 amount);\r\n\r\n    constructor(\r\n        address _admin,\r\n        address _seller,\r\n        uint256 _tokenId,\r\n        // uint256 _minPrice,\r\n        address _currencyAddress,\r\n        uint256 _purchasePrice,\r\n        uint256 startTime,\r\n        uint256 endTime,\r\n        address _nftAddress // uint256 _workId, // address _saleFactoryAddress\r\n    ) {\r\n        // require(_minPrice > 0);\r\n        admin = _admin;\r\n        seller = _seller;\r\n        tokenId = _tokenId;\r\n        // minPrice = _minPrice;\r\n        currencyAddress = _currencyAddress;\r\n        purchasePrice = _purchasePrice;\r\n        saleStartTime = startTime;\r\n        saleEndTime = endTime;\r\n        nftAddress = _nftAddress;\r\n        ended = false;\r\n        erc20Contract = IERC20(_currencyAddress);\r\n        erc721Constract = IERC721(_nftAddress);\r\n        // workId = _workId;\r\n        // saleFactoryAddress = _saleFactoryAddress;\r\n        // salefactory = SaleFactory(_saleFactoryAddress);\r\n\r\n        // NFT  \r\n        // erc721Constract.approve(address(this), tokenId);\r\n        //   .\r\n        // erc721Constract.transferFrom(seller, address(this), tokenId);\r\n    }\r\n\r\n    // function bid(uint256 bid_amount) public onlyAfterStart onlyUserPermissioned {\r\n    //     // TODO\r\n    //     require(msg.sender != seller, \"Sale: You couldn't be a bidder because you are a seller.\");\r\n    //     require(bid_amount >= minPrice, \"Sale: You should pay more than minPrice\");\r\n    //     require(bid_amount > highestBid, \"Sale: You should pay more than highestBid\");\r\n    //     require(bid_amount <= purchasePrice, \"Sale: You should pay less than buynow's price\");\r\n    //     highestBid = bid_amount;\r\n    //     highestBidder = msg.sender;\r\n    //     //     seller bid_amount \r\n    //     erc20Contract.approve(seller, bid_amount);\r\n    //     // transferOwnership(msg.sender)\r\n    //     emit HighestBidIncereased(msg.sender, bid_amount);\r\n\r\n    //     //   bid     \r\n    //     erc20Contract.transfer(seller, bid_amount);\r\n\r\n    // }\r\n\r\n    // modifier onlyAfterStart \r\n    function purchase() public onlyAfterStart {\r\n        // function purchase() public onlyAfterStart onlyUserPermissioned payable {\r\n        // TODO\r\n        // 5- \r\n        //    \r\n        require(\r\n            msg.sender != seller,\r\n            \"Sale: You couldn't purchase this item because you are a seller.\"\r\n        );\r\n        //  Sale    \r\n        //    \r\n        //   \r\n        require(saleEndTime - block.timestamp >= 0, \"seconde error\");\r\n        // require(block.timestamp >= saleStartTime);\r\n        //   Sale    ERC-20      \r\n        // 5-1)      \r\n        // 5-2)  ERC-20     .\r\n        //      \r\n        uint256 nowpayable = _getCurrencyAmount();\r\n        require(purchasePrice <= nowpayable);\r\n\r\n        //     seller bid_amount  \r\n        // erc20Contract.approve(address(this), purchasePrice);\r\n        //  \r\n\r\n        erc20Contract.transferFrom(msg.sender, seller, purchasePrice);\r\n\r\n        // 5-3) NFT   \r\n        // NFT   APPROVE\r\n        //\r\n        // erc721Constract.approve(msg.sender, tokenId);\r\n        erc721Constract.safeTransferFrom(seller, msg.sender, tokenId);\r\n\r\n        // 5-4)       .\r\n        //  \r\n        _end();\r\n        //  \r\n        // buyer = msg.sender;\r\n        emit SaleEnded(msg.sender, purchasePrice);\r\n    }\r\n\r\n    // function confirmItem() public {\r\n    // //     // TODO\r\n    //     require(saleEndTime <= block.timestamp, \"Sale: The auction is not ended yet.\");\r\n    //     require(msg.sender == highestBidder, \"Sale: You're are not a highest bidder.\");\r\n\r\n    //     // 6-1)    .\r\n    //     erc20Contract.transferFrom(highestBidder, seller, highestBid);\r\n    //     // 6-2) NFT   .\r\n    //     erc721Constract.safeTransferFrom(seller, highestBidder, tokenId);\r\n    //     // 6-3)      .\r\n    //     _end();\r\n    //     buyer = msg.sender;\r\n    // }\r\n\r\n    // //     \r\n    // modifier onlyseller \r\n    function cancelSales() public onlySeller {\r\n        //     // TODO\r\n        // 7 \r\n        //   \r\n        require(\r\n            saleEndTime - block.timestamp > 0,\r\n            \"Sale: Sale is already ended.\"\r\n        );\r\n        //      \r\n        require(\r\n            msg.sender == seller || msg.sender == admin,\r\n            \"Sale: You are not seller or administrator.\"\r\n        );\r\n        // 7-1)  .\r\n        // erc20Contract.transferFrom(seller, highestBidder, highestBid);\r\n        //  7-2)    .\r\n        // erc721Constract.setApprovalForAll(msg.sender, address(this), false);\r\n        // erc721Constract.approve(seller, tokenId);\r\n        // erc721Constract.safeTransferFrom(address(this), msg.sender, tokenId);\r\n        // erc721Constract.safeTransferFrom(address(this), seller, tokenId);\r\n        // erc721Constract.safeTransferFrom(highestBidder, seller, tokenId);\r\n        // 7-3)     .\r\n        //  \r\n        // sales  \r\n        // delete salefactory.allSales()[workId];\r\n        _end();\r\n    }\r\n\r\n    // function delete() public {\r\n    // require(msg.sender == owner, \"\")\r\n    // }\r\n\r\n    function getTimeLeft() public view returns (int256) {\r\n        return (int256)(saleEndTime - block.timestamp);\r\n    }\r\n\r\n    function getSaleInfo()\r\n        public\r\n        view\r\n        returns (\r\n            uint256,\r\n            uint256,\r\n            // uint256,\r\n            uint256,\r\n            uint256,\r\n            // address,\r\n            // uint256,\r\n            address,\r\n            address\r\n        )\r\n    {\r\n        return (\r\n            saleStartTime,\r\n            saleEndTime,\r\n            // minPrice,\r\n            purchasePrice,\r\n            tokenId,\r\n            // highestBidder,\r\n            // highestBid,\r\n            currencyAddress,\r\n            nftAddress\r\n        );\r\n    }\r\n\r\n    // function getHighestBid() public view returns(uint256){\r\n    //     return highestBid;\r\n    // }\r\n\r\n    // internal  private     _  .\r\n    function _end() internal {\r\n        ended = true;\r\n    }\r\n\r\n    function _getCurrencyAmount() private view returns (uint256) {\r\n        return erc20Contract.balanceOf(msg.sender);\r\n    }\r\n\r\n    // modifier       .\r\n    modifier onlySeller() {\r\n        require(msg.sender == seller, \"Sale: You are not seller.\");\r\n        //    _;\r\n        _;\r\n    }\r\n\r\n    modifier onlyAfterStart() {\r\n        require(\r\n            block.timestamp >= saleStartTime,\r\n            \"Sale: This sale is not started.\"\r\n        );\r\n        _;\r\n    }\r\n\r\n    // modifier onlyUserPermissioned() {\r\n    //     require(buyer !=address(0), \"Sale: This Buyer is not found.\");\r\n    //     // require(erc20Contract.approve(seller, purchasePrice), \"Sale:This Contract is not allowed\");\r\n    //     _;\r\n    // }\r\n}\r\n",
  "sourcePath": "C:\\Users\\SSAFY\\Desktop\\Unique\\S06P22E205\\UNIQUE\\frontend\\smart-contracts\\contracts\\SaleFactory.sol",
  "compiler": {
    "name": "solc",
    "version": "0.8.10+commit.fc410830.Emscripten.clang"
  },
  "schemaVersion": "3.4.6",
  "updatedAt": "2022-03-30T16:04:28.140Z",
  "devdoc": {
    "kind": "dev",
    "methods": {},
    "version": 1
  },
  "userdoc": {
    "kind": "user",
    "methods": {},
    "notice": "PJT  - Req.1-SC2) Sale ",
    "version": 1
  }
}