{
  "contractName": "SaleFactory",
  "abi": [
    {
      "inputs": [],
      "stateMutability": "nonpayable",
      "type": "constructor"
    },
    {
      "anonymous": false,
      "inputs": [
        {
          "indexed": true,
          "internalType": "address",
          "name": "_saleContract",
          "type": "address"
        },
        {
          "indexed": true,
          "internalType": "address",
          "name": "_owner",
          "type": "address"
        },
        {
          "indexed": false,
          "internalType": "uint256",
          "name": "_workId",
          "type": "uint256"
        }
      ],
      "name": "NewSale",
      "type": "event"
    },
    {
      "anonymous": false,
      "inputs": [
        {
          "indexed": true,
          "internalType": "address",
          "name": "previousOwner",
          "type": "address"
        },
        {
          "indexed": true,
          "internalType": "address",
          "name": "newOwner",
          "type": "address"
        }
      ],
      "name": "OwnershipTransferred",
      "type": "event"
    },
    {
      "inputs": [],
      "name": "admin",
      "outputs": [
        {
          "internalType": "address",
          "name": "",
          "type": "address"
        }
      ],
      "stateMutability": "view",
      "type": "function",
      "constant": true
    },
    {
      "inputs": [],
      "name": "owner",
      "outputs": [
        {
          "internalType": "address",
          "name": "",
          "type": "address"
        }
      ],
      "stateMutability": "view",
      "type": "function",
      "constant": true
    },
    {
      "inputs": [],
      "name": "renounceOwnership",
      "outputs": [],
      "stateMutability": "nonpayable",
      "type": "function"
    },
    {
      "inputs": [
        {
          "internalType": "uint256",
          "name": "",
          "type": "uint256"
        }
      ],
      "name": "sales",
      "outputs": [
        {
          "internalType": "address",
          "name": "",
          "type": "address"
        }
      ],
      "stateMutability": "view",
      "type": "function",
      "constant": true
    },
    {
      "inputs": [
        {
          "internalType": "address",
          "name": "newOwner",
          "type": "address"
        }
      ],
      "name": "transferOwnership",
      "outputs": [],
      "stateMutability": "nonpayable",
      "type": "function"
    },
    {
      "inputs": [
        {
          "internalType": "uint256",
          "name": "itemId",
          "type": "uint256"
        },
        {
          "internalType": "uint256",
          "name": "purchasePrice",
          "type": "uint256"
        },
        {
          "internalType": "uint256",
          "name": "startTime",
          "type": "uint256"
        },
        {
          "internalType": "uint256",
          "name": "endTime",
          "type": "uint256"
        },
        {
          "internalType": "address",
          "name": "currencyAddress",
          "type": "address"
        },
        {
          "internalType": "address",
          "name": "nftAddress",
          "type": "address"
        }
      ],
      "name": "createSale",
      "outputs": [
        {
          "internalType": "address",
          "name": "",
          "type": "address"
        }
      ],
      "stateMutability": "nonpayable",
      "type": "function"
    },
    {
      "inputs": [],
      "name": "allSales",
      "outputs": [
        {
          "internalType": "address[]",
          "name": "",
          "type": "address[]"
        }
      ],
      "stateMutability": "view",
      "type": "function",
      "constant": true
    }
  ],
  "bytecode": "0x608060405234801561001057600080fd5b5061002d61002261007360201b60201c565b61007b60201b60201c565b33600260006101000a81548173ffffffffffffffffffffffffffffffffffffffff021916908373ffffffffffffffffffffffffffffffffffffffff16021790555061013f565b600033905090565b60008060009054906101000a900473ffffffffffffffffffffffffffffffffffffffff169050816000806101000a81548173ffffffffffffffffffffffffffffffffffffffff021916908373ffffffffffffffffffffffffffffffffffffffff1602179055508173ffffffffffffffffffffffffffffffffffffffff168173ffffffffffffffffffffffffffffffffffffffff167f8be0079c531659141344cd1fd0a4f28419497f9722a3daafe3b4186f6b6457e060405160405180910390a35050565b611f0b8061014e6000396000f3fe60806040523480156200001157600080fd5b5060043610620000885760003560e01c80638da5cb5b11620000635780638da5cb5b14620000f1578063b5f522f71462000113578063f2fde38b1462000149578063f851a44014620001695762000088565b806368f3d87c146200008d5780636eafecba14620000c3578063715018a614620000e5575b600080fd5b620000ab6004803603810190620000a591906200073f565b6200018b565b604051620000ba9190620007ec565b60405180910390f35b620000cd620002e8565b604051620000dc9190620008d7565b60405180910390f35b620000ef62000378565b005b620000fb62000409565b6040516200010a9190620007ec565b60405180910390f35b6200013160048036038101906200012b9190620008fb565b62000432565b604051620001409190620007ec565b60405180910390f35b6200016760048036038101906200016191906200092d565b62000472565b005b6200017362000576565b604051620001829190620007ec565b60405180910390f35b600080600260009054906101000a900473ffffffffffffffffffffffffffffffffffffffff163389868a8a8a89604051620001c6906200068c565b620001d998979695949392919062000970565b604051809103906000f080158015620001f6573d6000803e3d6000fd5b5090506003819080600181540180825580915050600190039060005260206000200160009091909190916101000a81548173ffffffffffffffffffffffffffffffffffffffff021916908373ffffffffffffffffffffffffffffffffffffffff1602179055503373ffffffffffffffffffffffffffffffffffffffff168173ffffffffffffffffffffffffffffffffffffffff167f874bdb649427dfeceaa7f10beee59a823d3e45a6814f50bc18ba2adefd058e48620002b760016200059c565b604051620002c69190620009fe565b60405180910390a3620002da6001620005aa565b809150509695505050505050565b606060038054806020026020016040519081016040528092919081815260200182805480156200036e57602002820191906000526020600020905b8160009054906101000a900473ffffffffffffffffffffffffffffffffffffffff1673ffffffffffffffffffffffffffffffffffffffff168152602001906001019080831162000323575b5050505050905090565b62000382620005c0565b73ffffffffffffffffffffffffffffffffffffffff16620003a262000409565b73ffffffffffffffffffffffffffffffffffffffff1614620003fb576040517f08c379a0000000000000000000000000000000000000000000000000000000008152600401620003f29062000a7c565b60405180910390fd5b620004076000620005c8565b565b60008060009054906101000a900473ffffffffffffffffffffffffffffffffffffffff16905090565b600381815481106200044357600080fd5b906000526020600020016000915054906101000a900473ffffffffffffffffffffffffffffffffffffffff1681565b6200047c620005c0565b73ffffffffffffffffffffffffffffffffffffffff166200049c62000409565b73ffffffffffffffffffffffffffffffffffffffff1614620004f5576040517f08c379a0000000000000000000000000000000000000000000000000000000008152600401620004ec9062000a7c565b60405180910390fd5b600073ffffffffffffffffffffffffffffffffffffffff168173ffffffffffffffffffffffffffffffffffffffff16141562000568576040517f08c379a00000000000000000000000000000000000000000000000000000000081526004016200055f9062000b14565b60405180910390fd5b6200057381620005c8565b50565b600260009054906101000a900473ffffffffffffffffffffffffffffffffffffffff1681565b600081600001549050919050565b6001816000016000828254019250508190555050565b600033905090565b60008060009054906101000a900473ffffffffffffffffffffffffffffffffffffffff169050816000806101000a81548173ffffffffffffffffffffffffffffffffffffffff021916908373ffffffffffffffffffffffffffffffffffffffff1602179055508173ffffffffffffffffffffffffffffffffffffffff168173ffffffffffffffffffffffffffffffffffffffff167f8be0079c531659141344cd1fd0a4f28419497f9722a3daafe3b4186f6b6457e060405160405180910390a35050565b61139f8062000b3783390190565b600080fd5b6000819050919050565b620006b4816200069f565b8114620006c057600080fd5b50565b600081359050620006d481620006a9565b92915050565b600073ffffffffffffffffffffffffffffffffffffffff82169050919050565b60006200070782620006da565b9050919050565b6200071981620006fa565b81146200072557600080fd5b50565b60008135905062000739816200070e565b92915050565b60008060008060008060c087890312156200075f576200075e6200069a565b5b60006200076f89828a01620006c3565b96505060206200078289828a01620006c3565b95505060406200079589828a01620006c3565b9450506060620007a889828a01620006c3565b9350506080620007bb89828a0162000728565b92505060a0620007ce89828a0162000728565b9150509295509295509295565b620007e681620006fa565b82525050565b6000602082019050620008036000830184620007db565b92915050565b600081519050919050565b600082825260208201905092915050565b6000819050602082019050919050565b6200084081620006fa565b82525050565b600062000854838362000835565b60208301905092915050565b6000602082019050919050565b60006200087a8262000809565b62000886818562000814565b9350620008938362000825565b8060005b83811015620008ca578151620008ae888262000846565b9750620008bb8362000860565b92505060018101905062000897565b5085935050505092915050565b60006020820190508181036000830152620008f381846200086d565b905092915050565b6000602082840312156200091457620009136200069a565b5b60006200092484828501620006c3565b91505092915050565b6000602082840312156200094657620009456200069a565b5b6000620009568482850162000728565b91505092915050565b6200096a816200069f565b82525050565b60006101008201905062000988600083018b620007db565b62000997602083018a620007db565b620009a660408301896200095f565b620009b56060830188620007db565b620009c460808301876200095f565b620009d360a08301866200095f565b620009e260c08301856200095f565b620009f160e0830184620007db565b9998505050505050505050565b600060208201905062000a1560008301846200095f565b92915050565b600082825260208201905092915050565b7f4f776e61626c653a2063616c6c6572206973206e6f7420746865206f776e6572600082015250565b600062000a6460208362000a1b565b915062000a718262000a2c565b602082019050919050565b6000602082019050818103600083015262000a978162000a55565b9050919050565b7f4f776e61626c653a206e6577206f776e657220697320746865207a65726f206160008201527f6464726573730000000000000000000000000000000000000000000000000000602082015250565b600062000afc60268362000a1b565b915062000b098262000a9e565b604082019050919050565b6000602082019050818103600083015262000b2f8162000aed565b905091905056fe60806040523480156200001157600080fd5b506040516200139f3803806200139f8339818101604052810190620000379190620002a7565b87600360006101000a81548173ffffffffffffffffffffffffffffffffffffffff021916908373ffffffffffffffffffffffffffffffffffffffff16021790555086600160006101000a81548173ffffffffffffffffffffffffffffffffffffffff021916908373ffffffffffffffffffffffffffffffffffffffff1602179055508560078190555084600860006101000a81548173ffffffffffffffffffffffffffffffffffffffff021916908373ffffffffffffffffffffffffffffffffffffffff16021790555083600681905550826004819055508160058190555080600960006101000a81548173ffffffffffffffffffffffffffffffffffffffff021916908373ffffffffffffffffffffffffffffffffffffffff1602179055506000600960146101000a81548160ff02191690831515021790555084600c60006101000a81548173ffffffffffffffffffffffffffffffffffffffff021916908373ffffffffffffffffffffffffffffffffffffffff16021790555080600d60006101000a81548173ffffffffffffffffffffffffffffffffffffffff021916908373ffffffffffffffffffffffffffffffffffffffff160217905550505050505050505062000370565b600080fd5b600073ffffffffffffffffffffffffffffffffffffffff82169050919050565b6000620002348262000207565b9050919050565b620002468162000227565b81146200025257600080fd5b50565b60008151905062000266816200023b565b92915050565b6000819050919050565b62000281816200026c565b81146200028d57600080fd5b50565b600081519050620002a18162000276565b92915050565b600080600080600080600080610100898b031215620002cb57620002ca62000202565b5b6000620002db8b828c0162000255565b9850506020620002ee8b828c0162000255565b9750506040620003018b828c0162000290565b9650506060620003148b828c0162000255565b9550506080620003278b828c0162000290565b94505060a06200033a8b828c0162000290565b93505060c06200034d8b828c0162000290565b92505060e0620003608b828c0162000255565b9150509295985092959890939650565b61101f80620003806000396000f3fe608060405234801561001057600080fd5b506004361061010b5760003560e01c80637150d8ae116100a2578063c7e284b811610071578063c7e284b814610250578063db83694c1461026e578063defd6c5f14610291578063ed338ff1146102af578063ef0a230e146102cd5761010b565b80637150d8ae146101ec578063903e329c1461020a578063a64258c814610214578063a8f6c913146102325761010b565b80631cbaee2d116100de5780631cbaee2d1461018857806346764531146101a65780635bf8633a146101c457806364edfbf0146101e25761010b565b806308551a531461011057806312fa6feb1461012e57806317d70f7c1461014c5780631c1cb3231461016a575b600080fd5b6101186102eb565b6040516101259190610a26565b60405180910390f35b610136610311565b6040516101439190610a5c565b60405180910390f35b610154610324565b6040516101619190610a90565b60405180910390f35b61017261032a565b60405161017f9190610a26565b60405180910390f35b610190610350565b60405161019d9190610a90565b60405180910390f35b6101ae610356565b6040516101bb9190610a26565b60405180910390f35b6101cc61037c565b6040516101d99190610a26565b60405180910390f35b6101ea6103a2565b005b6101f461064b565b6040516102019190610a26565b60405180910390f35b610212610671565b005b61021c610843565b6040516102299190610a90565b60405180910390f35b61023a610849565b6040516102479190610b0a565b60405180910390f35b61025861086f565b6040516102659190610b3e565b60405180910390f35b610276610884565b60405161028896959493929190610b59565b60405180910390f35b6102996108f3565b6040516102a69190610a90565b60405180910390f35b6102b76108f9565b6040516102c49190610a90565b60405180910390f35b6102d56108ff565b6040516102e29190610bdb565b60405180910390f35b600160009054906101000a900473ffffffffffffffffffffffffffffffffffffffff1681565b600960149054906101000a900460ff1681565b60075481565b600860009054906101000a900473ffffffffffffffffffffffffffffffffffffffff1681565b60045481565b600b60009054906101000a900473ffffffffffffffffffffffffffffffffffffffff1681565b600960009054906101000a900473ffffffffffffffffffffffffffffffffffffffff1681565b6004544210156103e7576040517f08c379a00000000000000000000000000000000000000000000000000000000081526004016103de90610c53565b60405180910390fd5b600160009054906101000a900473ffffffffffffffffffffffffffffffffffffffff1673ffffffffffffffffffffffffffffffffffffffff163373ffffffffffffffffffffffffffffffffffffffff161415610478576040517f08c379a000000000000000000000000000000000000000000000000000000000815260040161046f90610ce5565b60405180910390fd5b6000426005546104889190610d34565b101561049357600080fd5b600061049d610925565b905080600654116104ad57600080fd5b600c60009054906101000a900473ffffffffffffffffffffffffffffffffffffffff1673ffffffffffffffffffffffffffffffffffffffff1663a9059cbb600160009054906101000a900473ffffffffffffffffffffffffffffffffffffffff166006546040518363ffffffff1660e01b815260040161052e929190610d68565b6020604051808303816000875af115801561054d573d6000803e3d6000fd5b505050506040513d601f19601f820116820180604052508101906105719190610dc2565b50600d60009054906101000a900473ffffffffffffffffffffffffffffffffffffffff1673ffffffffffffffffffffffffffffffffffffffff166342842e0e30336007546040518463ffffffff1660e01b81526004016105d393929190610def565b600060405180830381600087803b1580156105ed57600080fd5b505af1158015610601573d6000803e3d6000fd5b5050505061060d6109c8565b7f349f939aaa1895cee67485b264474f0d2a1aac01083917b8ea9f96e4036cbb2733600654604051610640929190610d68565b60405180910390a150565b600260009054906101000a900473ffffffffffffffffffffffffffffffffffffffff1681565b600160009054906101000a900473ffffffffffffffffffffffffffffffffffffffff1673ffffffffffffffffffffffffffffffffffffffff163373ffffffffffffffffffffffffffffffffffffffff1614610701576040517f08c379a00000000000000000000000000000000000000000000000000000000081526004016106f890610e72565b60405180910390fd5b6000426005546107119190610d34565b11610751576040517f08c379a000000000000000000000000000000000000000000000000000000000815260040161074890610ede565b60405180910390fd5b600160009054906101000a900473ffffffffffffffffffffffffffffffffffffffff1673ffffffffffffffffffffffffffffffffffffffff163373ffffffffffffffffffffffffffffffffffffffff1614806107fa5750600360009054906101000a900473ffffffffffffffffffffffffffffffffffffffff1673ffffffffffffffffffffffffffffffffffffffff163373ffffffffffffffffffffffffffffffffffffffff16145b610839576040517f08c379a000000000000000000000000000000000000000000000000000000000815260040161083090610f70565b60405180910390fd5b6108416109c8565b565b600a5481565b600c60009054906101000a900473ffffffffffffffffffffffffffffffffffffffff1681565b60004260055461087f9190610d34565b905090565b600080600080600080600454600554600654600754600860009054906101000a900473ffffffffffffffffffffffffffffffffffffffff16600960009054906101000a900473ffffffffffffffffffffffffffffffffffffffff16955095509550955095509550909192939495565b60065481565b60055481565b600d60009054906101000a900473ffffffffffffffffffffffffffffffffffffffff1681565b6000600c60009054906101000a900473ffffffffffffffffffffffffffffffffffffffff1673ffffffffffffffffffffffffffffffffffffffff166370a08231336040518263ffffffff1660e01b81526004016109829190610a26565b602060405180830381865afa15801561099f573d6000803e3d6000fd5b505050506040513d601f19601f820116820180604052508101906109c39190610fbc565b905090565b6001600960146101000a81548160ff021916908315150217905550565b600073ffffffffffffffffffffffffffffffffffffffff82169050919050565b6000610a10826109e5565b9050919050565b610a2081610a05565b82525050565b6000602082019050610a3b6000830184610a17565b92915050565b60008115159050919050565b610a5681610a41565b82525050565b6000602082019050610a716000830184610a4d565b92915050565b6000819050919050565b610a8a81610a77565b82525050565b6000602082019050610aa56000830184610a81565b92915050565b6000819050919050565b6000610ad0610acb610ac6846109e5565b610aab565b6109e5565b9050919050565b6000610ae282610ab5565b9050919050565b6000610af482610ad7565b9050919050565b610b0481610ae9565b82525050565b6000602082019050610b1f6000830184610afb565b92915050565b6000819050919050565b610b3881610b25565b82525050565b6000602082019050610b536000830184610b2f565b92915050565b600060c082019050610b6e6000830189610a81565b610b7b6020830188610a81565b610b886040830187610a81565b610b956060830186610a81565b610ba26080830185610a17565b610baf60a0830184610a17565b979650505050505050565b6000610bc582610ad7565b9050919050565b610bd581610bba565b82525050565b6000602082019050610bf06000830184610bcc565b92915050565b600082825260208201905092915050565b7f53616c653a20546869732073616c65206973206e6f7420737461727465642e00600082015250565b6000610c3d601f83610bf6565b9150610c4882610c07565b602082019050919050565b60006020820190508181036000830152610c6c81610c30565b9050919050565b7f53616c653a20596f7520636f756c646e2774207075726368617365207468697360008201527f206974656d206265636175736520796f752061726520612073656c6c65722e00602082015250565b6000610ccf603f83610bf6565b9150610cda82610c73565b604082019050919050565b60006020820190508181036000830152610cfe81610cc2565b9050919050565b7f4e487b7100000000000000000000000000000000000000000000000000000000600052601160045260246000fd5b6000610d3f82610a77565b9150610d4a83610a77565b925082821015610d5d57610d5c610d05565b5b828203905092915050565b6000604082019050610d7d6000830185610a17565b610d8a6020830184610a81565b9392505050565b600080fd5b610d9f81610a41565b8114610daa57600080fd5b50565b600081519050610dbc81610d96565b92915050565b600060208284031215610dd857610dd7610d91565b5b6000610de684828501610dad565b91505092915050565b6000606082019050610e046000830186610a17565b610e116020830185610a17565b610e1e6040830184610a81565b949350505050565b7f53616c653a20596f7520617265206e6f742073656c6c65722e00000000000000600082015250565b6000610e5c601983610bf6565b9150610e6782610e26565b602082019050919050565b60006020820190508181036000830152610e8b81610e4f565b9050919050565b7f53616c653a2053616c6520697320616c726561647920656e6465642e00000000600082015250565b6000610ec8601c83610bf6565b9150610ed382610e92565b602082019050919050565b60006020820190508181036000830152610ef781610ebb565b9050919050565b7f53616c653a20596f7520617265206e6f742073656c6c6572206f722061646d6960008201527f6e6973747261746f722e00000000000000000000000000000000000000000000602082015250565b6000610f5a602a83610bf6565b9150610f6582610efe565b604082019050919050565b60006020820190508181036000830152610f8981610f4d565b9050919050565b610f9981610a77565b8114610fa457600080fd5b50565b600081519050610fb681610f90565b92915050565b600060208284031215610fd257610fd1610d91565b5b6000610fe084828501610fa7565b9150509291505056fea2646970667358221220f8398ba3528b61e74260c05130c49647558e329a441046ece00f188d09e25aa064736f6c634300080a0033a26469706673582212208c27512433e414be7fda8f118ad7420cc7218bab73da0e28274eb618c811080f64736f6c634300080a0033",
  "immutableReferences": {},
  "source": "// SPDX-License-Identifier: MIT\r\npragma solidity ^0.8.4;\r\n\r\nimport \"./access/Ownable.sol\";\r\nimport \"./token/ERC20/ERC20.sol\";\r\nimport \"./token/ERC721/ERC721.sol\";\r\nimport \"@openzeppelin/contracts/utils/Counters.sol\";\r\n// import \"./utils/Counters.sol\";\r\n\r\n\r\n/**\r\n * PJT  - Req.1-SC1 SaleFactory \r\n *    ,      .\r\n */\r\n//  Ownable   ownable constructor \r\ncontract SaleFactory is Ownable {\r\n    using Counters for Counters.Counter;\r\n    Counters.Counter private _workId;\r\n\r\n    address public admin;\r\n    address[] public sales;\r\n\r\n    // Newsale    \r\n    // event  indexed,  web3.js filter      .\r\n    event NewSale(\r\n        address indexed _saleContract,\r\n        address indexed _owner,\r\n        uint256 _workId\r\n    );\r\n    constructor() {\r\n        admin = msg.sender;\r\n    }\r\n    /**\r\n     * @dev   . \r\n     */\r\n    function createSale(\r\n        uint256 itemId,\r\n        // uint256 minPrice,\r\n        uint256 purchasePrice,\r\n        uint256 startTime,\r\n        uint256 endTime,\r\n        address currencyAddress,\r\n        address nftAddress\r\n    ) public returns (address) {\r\n        // TODO\r\n        //       \r\n        // 4-1).\r\n        Sale sale = new Sale (\r\n            //   Sale  constructor   \r\n            //    \r\n            admin,\r\n            msg.sender,\r\n            itemId,\r\n            // minPrice,\r\n            // \r\n            currencyAddress,\r\n            purchasePrice,\r\n            startTime,\r\n            endTime,  \r\n            // \r\n            nftAddress\r\n            // _workId.current(),\r\n            // address(this)\r\n        );\r\n        // setApprovalForAll(address(this), true);\r\n        // ERC721.setApprovalForAll(address(sale), true);\r\n        // erc721Constract.setApprovalForAll(msg.sender, address(sale), true);\r\n        \r\n        // 4-2).     sales .\r\n        // sales[_workId.current()] = address(this);\r\n        sales.push(address(sale));\r\n        // 4-3).  sale   .\r\n        //     \r\n        emit NewSale(address(sale), msg.sender, _workId.current());\r\n        _workId.increment();\r\n\r\n        return address(sale);\r\n\r\n    }\r\n\r\n    function allSales() public view returns (address[] memory) {\r\n        return sales;\r\n    }\r\n}\r\n\r\n/**\r\n *  PJT  - Req.1-SC2) Sale \r\n */\r\ncontract Sale {\r\n    SaleFactory salefactory;\r\n    //    \r\n    // \r\n    address public seller;\r\n    // \r\n    address public buyer;\r\n    // \r\n    address admin;\r\n    uint256 public saleStartTime;\r\n    uint256 public saleEndTime;\r\n    // uint256 public minPrice;\r\n    // 6 \r\n    uint256 public purchasePrice;\r\n    //  nft ())\r\n    uint256 public tokenId;\r\n    //   erc-20 \r\n    address public currencyAddress;\r\n    //  nft (nft)\r\n    address public nftAddress;\r\n    bool public ended;\r\n    uint256 public workId;\r\n    address public saleFactoryAddress;\r\n    \r\n    //    \r\n    // address public highestBidder;\r\n    // uint256 public highestBid;\r\n\r\n    IERC20 public erc20Contract;\r\n    IERC721 public erc721Constract;\r\n\r\n    event HighestBidIncereased(address bidder, uint256 amount);\r\n    event SaleEnded(address winner, uint256 amount);\r\n\r\n    constructor(\r\n        address _admin,\r\n        address _seller,\r\n        uint256 _tokenId,\r\n        // uint256 _minPrice,\r\n        address _currencyAddress,\r\n        uint256 _purchasePrice,\r\n        uint256 startTime,\r\n        uint256 endTime,\r\n        address _nftAddress\r\n        // uint256 _workId,\r\n        // address _saleFactoryAddress\r\n    ) {\r\n        // require(_minPrice > 0);\r\n        admin = _admin;\r\n        seller = _seller;\r\n        tokenId = _tokenId;\r\n        // minPrice = _minPrice;\r\n        currencyAddress = _currencyAddress;\r\n        purchasePrice = _purchasePrice;\r\n        saleStartTime = startTime;\r\n        saleEndTime = endTime;\r\n        nftAddress = _nftAddress;\r\n        ended = false;\r\n        erc20Contract = IERC20(_currencyAddress);\r\n        erc721Constract = IERC721(_nftAddress);\r\n        // workId = _workId;\r\n        // saleFactoryAddress = _saleFactoryAddress;\r\n        // salefactory = SaleFactory(_saleFactoryAddress);\r\n        \r\n        // NFT  \r\n        // erc721Constract.approve(address(this), tokenId);\r\n        //   .\r\n        // erc721Constract.transferFrom(seller, address(this), tokenId);\r\n    }\r\n\r\n\r\n    // function bid(uint256 bid_amount) public onlyAfterStart onlyUserPermissioned {\r\n    //     // TODO\r\n    //     require(msg.sender != seller, \"Sale: You couldn't be a bidder because you are a seller.\");\r\n    //     require(bid_amount >= minPrice, \"Sale: You should pay more than minPrice\");\r\n    //     require(bid_amount > highestBid, \"Sale: You should pay more than highestBid\");\r\n    //     require(bid_amount <= purchasePrice, \"Sale: You should pay less than buynow's price\");\r\n    //     highestBid = bid_amount;\r\n    //     highestBidder = msg.sender;\r\n    //     //     seller bid_amount \r\n    //     erc20Contract.approve(seller, bid_amount);\r\n    //     // transferOwnership(msg.sender)\r\n    //     emit HighestBidIncereased(msg.sender, bid_amount);\r\n\r\n    //     //   bid     \r\n    //     erc20Contract.transfer(seller, bid_amount);\r\n\r\n    // }\r\n\r\n    // modifier onlyAfterStart \r\n    function purchase() public onlyAfterStart  {\r\n    // function purchase() public onlyAfterStart onlyUserPermissioned payable {\r\n        // TODO \r\n        // 5- \r\n        //    \r\n        require(msg.sender != seller, \"Sale: You couldn't purchase this item because you are a seller.\");\r\n        //  Sale    \r\n        //    \r\n        //   \r\n        require(saleEndTime - block.timestamp >= 0);\r\n        // require(block.timestamp >= saleStartTime);\r\n        //   Sale    ERC-20      \r\n        // 5-1)      \r\n        // 5-2)  ERC-20     .\r\n        //      \r\n        uint256 nowpayable = _getCurrencyAmount();\r\n        require(purchasePrice > nowpayable);\r\n\r\n        //     seller bid_amount  \r\n        // erc20Contract.approve(address(this), purchasePrice);\r\n        erc20Contract.transfer(seller, purchasePrice);\r\n        // 5-3) NFT   \r\n        // NFT   APPROVE\r\n        // \r\n        // erc721Constract.approve(msg.sender, tokenId);\r\n        erc721Constract.safeTransferFrom(address(this), msg.sender, tokenId);\r\n        \r\n        // 5-4)       .\r\n        //  \r\n        _end();\r\n        //  \r\n        // buyer = msg.sender;\r\n        emit SaleEnded(msg.sender, purchasePrice);\r\n\r\n    }\r\n\r\n    // function confirmItem() public {\r\n    // //     // TODO \r\n    //     require(saleEndTime <= block.timestamp, \"Sale: The auction is not ended yet.\");\r\n    //     require(msg.sender == highestBidder, \"Sale: You're are not a highest bidder.\");\r\n\r\n    //     // 6-1)    .\r\n    //     erc20Contract.transferFrom(highestBidder, seller, highestBid);\r\n    //     // 6-2) NFT   .\r\n    //     erc721Constract.safeTransferFrom(seller, highestBidder, tokenId);\r\n    //     // 6-3)      .\r\n    //     _end();\r\n    //     buyer = msg.sender;\r\n    // }\r\n    \r\n    // //     \r\n    // modifier onlyseller \r\n    function cancelSales() public onlySeller {\r\n    //     // TODO\r\n        // 7 \r\n        //   \r\n        require(saleEndTime - block.timestamp > 0, \"Sale: Sale is already ended.\");\r\n        //      \r\n        require(msg.sender == seller || msg.sender == admin, \"Sale: You are not seller or administrator.\");\r\n        // 7-1)  .\r\n        // erc20Contract.transferFrom(seller, highestBidder, highestBid);\r\n        //  7-2)    .\r\n        // erc721Constract.setApprovalForAll(msg.sender, address(this), false);\r\n        // erc721Constract.approve(seller, tokenId);\r\n        // erc721Constract.safeTransferFrom(address(this), msg.sender, tokenId);\r\n        // erc721Constract.safeTransferFrom(address(this), seller, tokenId);\r\n        // erc721Constract.safeTransferFrom(highestBidder, seller, tokenId);\r\n        // 7-3)     .\r\n        //  \r\n        // sales  \r\n        // delete salefactory.allSales()[workId];\r\n        _end();\r\n    }\r\n\r\n    // function delete() public {\r\n        // require(msg.sender == owner, \"\")\r\n    // }\r\n\r\n    function getTimeLeft() public view returns (int256) {\r\n        return (int256)(saleEndTime - block.timestamp);\r\n    }\r\n\r\n    function getSaleInfo()\r\n        public\r\n        view\r\n        returns (\r\n            uint256,\r\n            uint256,\r\n            // uint256,\r\n            uint256,\r\n            uint256,\r\n            // address,\r\n            // uint256,\r\n            address,\r\n            address\r\n        )\r\n    {\r\n        return (\r\n            saleStartTime,\r\n            saleEndTime,\r\n            // minPrice,\r\n            purchasePrice,\r\n            tokenId,\r\n            // highestBidder,\r\n            // highestBid,\r\n            currencyAddress,\r\n            nftAddress\r\n        );\r\n    }\r\n\r\n    // function getHighestBid() public view returns(uint256){\r\n    //     return highestBid;\r\n    // }\r\n\r\n    // internal  private     _  .\r\n    function _end() internal {\r\n        ended = true;\r\n    }\r\n\r\n    function _getCurrencyAmount() private view returns (uint256) {\r\n        return erc20Contract.balanceOf(msg.sender);\r\n    }\r\n\r\n    // modifier       . \r\n    modifier onlySeller() {\r\n        require(msg.sender == seller, \"Sale: You are not seller.\");\r\n        //    _;\r\n        _;\r\n    }\r\n\r\n    modifier onlyAfterStart() {\r\n        require(\r\n            block.timestamp >= saleStartTime,\r\n            \"Sale: This sale is not started.\"\r\n        );\r\n        _;\r\n    }\r\n    \r\n    // modifier onlyUserPermissioned() {\r\n    //     require(buyer !=address(0), \"Sale: This Buyer is not found.\");\r\n    //     // require(erc20Contract.approve(seller, purchasePrice), \"Sale:This Contract is not allowed\");\r\n    //     _;\r\n    // }\r\n}\r\n",
  "sourcePath": "C:\\Users\\SSAFY\\Desktop\\2th_PJT\\S06P22E205\\UNIQUE\\frontend\\smart-contracts\\contracts\\SaleFactory.sol",
  "compiler": {
    "name": "solc",
    "version": "0.8.10+commit.fc410830.Emscripten.clang"
  },
  "schemaVersion": "3.4.6",
  "updatedAt": "2022-04-01T07:40:12.683Z",
  "networkType": "ethereum",
  "devdoc": {
    "kind": "dev",
    "methods": {
      "createSale(uint256,uint256,uint256,uint256,address,address)": {
        "details": "  . "
      },
      "owner()": {
        "details": "Returns the address of the current owner."
      },
      "renounceOwnership()": {
        "details": "Leaves the contract without owner. It will not be possible to call `onlyOwner` functions anymore. Can only be called by the current owner. NOTE: Renouncing ownership will leave the contract without an owner, thereby removing any functionality that is only available to the owner."
      },
      "transferOwnership(address)": {
        "details": "Transfers ownership of the contract to a new account (`newOwner`). Can only be called by the current owner."
      }
    },
    "version": 1
  },
  "userdoc": {
    "kind": "user",
    "methods": {},
    "notice": "PJT  - Req.1-SC1 SaleFactory     ,      .",
    "version": 1
  }
}